:020000040000fa
:080000000002040000000000f2
:020000040000fa
:040008009804000058
:020000040000fa
:04000c00a00400004c
:020000040000fa
:04001000d804000010
:020000040000fa
:04001400a80400003c
:020000040000fa
:04001800b004000030
:020000040000fa
:04001c00d804000004
:020000040000fa
:04002000d804000000
:020000040000fa
:04002400d8040000fc
:020000040000fa
:04002800d8040000f8
:020000040000fa
:04002c00d8040000f4
:020000040000fa
:04003000d8040000f0
:020000040000fa
:04003400380300008d
:020000040000fa
:04003800d8040000e8
:020000040000fa
:04003c00d8040000e4
:020000040000fa
:04004000d8040000e0
:020000040000fa
:04004400d8040000dc
:020000040000fa
:04004800fa020000b8
:020000040000fa
:04004c00d8040000d4
:020000040000fa
:04005000d8040000d0
:020000040000fa
:04005400080400009c
:020000040000fa
:04005800dc030000c5
:020000040000fa
:04005c00b6030000e7
:020000040000fa
:04006000d8040000c0
:020000040000fa
:04006400d8040000bc
:020000040000fa
:04006800d8040000b8
:020000040000fa
:04006c00d8040000b4
:020000040000fa
:04007000d8040000b0
:020000040000fa
:04007400d8040000ac
:020000040000fa
:04007800d8040000a8
:020000040000fa
:04007c00d8040000a4
:020000040000fa
:04008000d8040000a0
:020000040000fa
:04008400d80400009c
:020000040000fa
:04008800d804000098
:020000040000fa
:04008c00d804000094
:020000040000fa
:04009000d804000090
:020000040000fa
:0400940094030000d1
:020000040000fa
:04009800d804000088
:020000040000fa
:04009c00d804000084
:020000040000fa
:0400a0005004000008
:020000040000fa
:0400a400d80400007c
:020000040000fa
:0400a800d804000078
:020000040000fa
:0400ac00d804000074
:020000040000fa
:0400b000d804000070
:020000040000fa
:0400b400d80400006c
:020000040000fa
:0400b800d804000068
:020000040000fa
:0400bc00d804000064
:020000040000fa
:0400c000d804000060
:020000040000fa
:0400c400d80400005c
:020000040000fa
:0400c800d804000058
:020000040000fa
:0400cc00d804000054
:020000040000fa
:0400d000d804000050
:020000040000fa
:0400d400d80400004c
:020000040000fa
:0400d800d804000048
:020000040000fa
:0400dc00d804000044
:020000040000fa
:0400e000d804000040
:020000040000fa
:0400e400d80400003c
:020000040000fa
:0400e800d804000038
:020000040000fa
:0400ec00d804000034
:020000040000fa
:0400f000d804000030
:020000040000fa
:0400f400d80400002c
:020000040000fa
:0400f800d804000028
:020000040000fa
:0400fc00d804000024
:020000040000fa
:04010000d80400001f
:020000040000fa
:04010400d80400001b
:020000040000fa
:04010800d804000017
:020000040000fa
:04010c00d804000013
:020000040000fa
:04011000d80400000f
:020000040000fa
:04011400d80400000b
:020000040000fa
:04011800d804000007
:020000040000fa
:04011c00d804000003
:020000040000fa
:04012000d8040000ff
:020000040000fa
:04012400d8040000fb
:020000040000fa
:04012800d8040000f7
:020000040000fa
:04012c00d8040000f3
:020000040000fa
:04013000d8040000ef
:020000040000fa
:04013400d8040000eb
:020000040000fa
:04013800d8040000e7
:020000040000fa
:04013c00d8040000e3
:020000040000fa
:04014000d8040000df
:020000040000fa
:04014400d8040000db
:020000040000fa
:04014800d8040000d7
:020000040000fa
:04014c00d8040000d3
:020000040000fa
:04015000d8040000cf
:020000040000fa
:04015400d8040000cb
:020000040000fa
:04015800d8040000c7
:020000040000fa
:04015c00d8040000c3
:020000040000fa
:04016000d8040000bf
:020000040000fa
:04016400d8040000bb
:020000040000fa
:04016800d8040000b7
:020000040000fa
:04016c00d8040000b3
:020000040000fa
:04017000d8040000af
:020000040000fa
:04017400d8040000ab
:020000040000fa
:04017800d8040000a7
:020000040000fa
:04017c00d8040000a3
:020000040000fa
:04018000d80400009f
:020000040000fa
:04018400d80400009b
:020000040000fa
:04018800d804000097
:020000040000fa
:04018c00d804000093
:020000040000fa
:04019000d80400008f
:020000040000fa
:04019400d80400008b
:020000040000fa
:04019800d804000087
:020000040000fa
:04019c00d804000083
:020000040000fa
:0401a000d80400007f
:020000040000fa
:0401a400d80400007b
:020000040000fa
:0401a800d804000077
:020000040000fa
:0401ac00d804000073
:020000040000fa
:0401b000d80400006f
:020000040000fa
:0401b400d80400006b
:020000040000fa
:0401b800d804000067
:020000040000fa
:0401bc00d804000063
:020000040000fa
:0401c000d80400005f
:020000040000fa
:0401c400d80400005b
:020000040000fa
:0401c800d804000057
:020000040000fa
:0401cc00d804000053
:020000040000fa
:0401d000d80400004f
:020000040000fa
:0401d400d80400004b
:020000040000fa
:0401d800d804000047
:020000040000fa
:0401dc00d804000043
:020000040000fa
:0401e000d80400003f
:020000040000fa
:0401e400d80400003b
:020000040000fa
:0401e800d804000037
:020000040000fa
:0401ec00d804000033
:020000040000fa
:0401f000d80400002f
:020000040000fa
:0401f400d80400002b
:020000040000fa
:0401f800d804000027
:020000040000fa
:0401fc00d804000023
:020000040000fa
:04020000d80400001e
:020000040000fa
:04020400d80400001a
:020000040000fa
:04020800d804000016
:020000040000fa
:04020c00d804000012
:020000040000fa
:04021000d80400000e
:020000040000fa
:04021400d80400000a
:020000040000fa
:04021800d804000006
:020000040000fa
:04021c00d804000002
:020000040000fa
:04022000d8040000fe
:020000040000fa
:04022400d8040000fa
:020000040000fa
:04022800d8040000f6
:020000040000fa
:04022c00d8040000f2
:020000040000fa
:04023000d8040000ee
:020000040000fa
:04023400d8040000ea
:020000040000fa
:04023800d8040000e6
:020000040000fa
:04023c00d8040000e2
:020000040000fa
:04024000d8040000de
:020000040000fa
:04024400d8040000da
:020000040000fa
:04024800d8040000d6
:020000040000fa
:04024c00d8040000d2
:020000040000fa
:04025000d8040000ce
:020000040000fa
:04025400d8040000ca
:020000040000fa
:04025800d8040000c6
:020000040000fa
:04025c00d8040000c2
:020000040000fa
:04026000d8040000be
:020000040000fa
:04026400d8040000ba
:020000040000fa
:100400002f6221000eff27000e018800000000006f
:10041000000020000000e000020032000001200087
:100420002002880014000700630107000000e000bc
:1004300003003a00a01d2400010020000200370044
:100440000000200001002000810f70000100320038
:100450000f000700000020000000e0000200320052
:100460000000020000000000821f020000000000e7
:100470000040da000000fe00200020000000e00044
:1004800002003200100020009001880000000600e9
:10049000a1028800800478000000eb001f003700f4
:1004a000e284440054a0b4009905ba00e2844400f8
:1004b00054a0b4009906ba00e284440054a0b400e9
:1004c0000006eb00476fde00fd07b200ae018800ba
:1004d000636ce10003003a000ad801000000eb0061
:1004e0000e003700606ce10008003a00004deb00a0
:1004f0000a05e800020039003420ec000af0a000f0
:100500008b05e900f9ff3e00040037006168e10057
:10051000010032000086eb000b00070019c7ba008b
:100520000e04e0001905ba0003003a000a00e000da
:10053000dbff3a0000000600fe07b200ae028800b2
:100540008a047800f5ff37000cd0a300e20f4d00bd
:100550001c003b0089027800354dba000a05e8000e
:10056000020039003420ec000af0a0008b05e900fd
:100570000f003200254dba000a05e80002003900dc
:100580003420ec000af0a0008b05e90008003200de
:100590000c00e0000600320015cdba000a05e800a4
:1005a000020039003420ec000af0a0008b05e900bd
:1005b0008984e80054a0b4000b00e000e2ff3a0098
:1005c000000006009902ba00055d78008b05e9007d
:1005d000f7ff3200c82ade00055d78008b05e900d0
:1005e000f3ff32000c00e000f1ff320019ddba0029
:1005f000eeff37003600f800809fbe00829fbe00ed
:10060000849fbe00869fbe000000fa000108a9007a
:100610007ad0bf000004e000030032001001200087
:10062000d317070002003700100920002118070027
:100630007ad0bf000070a7000040ea000040e90047
:100640000080fb004700de00004078007af0b70031
:10065000000000000080fa004f03be004f02be0001
:100660004f01be004f00be003600f90000400600fa
:100670003600f800809fbe00829fbe00849fbe00af
:10068000869fbe000000fa000068a900392007001c
:10069000a5180700c91d07000c0a0700c7160700a8
:1006a000c08380000000e800c0838800c183800010
:1006b0004001200000017800110009008200d800ec
:1006c0008000fd000000e00004003a00171a070057
:1006d000d30d070010092000f6170700c183800022
:1006e000a00f200000017800110009008200d8004e
:1006f0008000fd000000e00003003a00300620000a
:100700009b1707007830ef00000000000080fa001f
:100710004f03be004f02be004f01be004f00be009f
:100720003600f90000400600809fbe00829fbe0098
:100730000000fa000368a900a2838000b383800050
:1007400010002000010020000200400083804800cb
:10075000a0838800b1838800000000000080fa00b8
:100760004f01be004f00be0000400600801f780011
:100770000000fa0001a8a90000188000b0b08800ad
:1007800010188000c0b0880020188000d0b0880009
:1007900030188000f0b0880040188000e0b0880079
:1007a00010c0b3009bf0b700000000000080fa000a
:1007b0004f007800004006003600f800809fbe0021
:1007c000829fbe00849fbe00869fbe000000fa008c
:1007d0000188a9002184800010848000808f50004f
:1007e00002003200ca1e0700010037008670ef00c9
:1007f000000000000080fa004f03be004f02be0060
:100800004f01be004f00be003600f9000040060058
:100810003600f800809fbe00829fbe00849fbe000d
:10082000869fbe000000fa000168a9001011800038
:100830004200de0061406000e14f500001003a00dc
:100840002242a900101180000000d1006140600028
:10085000e14f500005003a002222a90003003700b2
:1008600030118000004078007020070010118000d7
:100870000040780061406000e14f5000f8ff320016
:10088000000000000080fa004f03be004f02be00cf
:100890004f01be004f00be003600f90000400600c8
:1008a0003600f800809fbe00829fbe00849fbe007d
:1008b000869fbe000000fa0003c8a90090118000c6
:1008c0004200de0061406000e14f500001003a004c
:1008d0003242a900901180000000d1006140600008
:1008e000e14f500005003a003222a9000300370012
:1008f000b0118000004078008e2007009011800029
:100900000040780061406000e14f5000f8ff320085
:10091000000000000080fa004f03be004f02be003e
:100920004f01be004f00be003600f9000040060037
:10093000c22007000000fa00c028a900ffff37000e
:10094000be2007000000fa00c068a900ffff3700c2
:10095000ba2007000000fa00c048a900ffff3700d6
:10096000b62007000000fa00c088a900ffff37008a
:10097000b22007000000fa00c028a900ffff3700de
:10098000ae2007000000fa00c068a900ffff370092
:10099000aa2007000000fa00c048a900ffff3700a6
:1009a000a62007000000fa00c088a900ffff37005a
:1009b0000040da000000fe000000050014002000e6
:1009c000ad033700f4ff2f00ab0337000001be007a
:1009d0003f0007000470a70003f0a1006509b10003
:1009e000160032000d0035006828e10006003500d1
:1009f000f0ff2f00f1ff27000300e00013003b0091
:100a0000010028000000050000004000818048002f
:100a10008502e900fcff3a0008003700f88f420029
:100a200002003c008000eb00000005008100d100c6
:100a30000080d3008502e800fcff3a000300e000dc
:100a400002003b0060001000e0801800000006007b
:100a50000001be001e0007000470a70003f0a10003
:100a600003f8a30013003a006509b100100032003a
:100a7000090035006928e100020035000100280066
:100a80000000050000004000818048008502e90068
:100a9000fcff3a0000000600f88f42000500350018
:100aa0008100d1000080d3008502e800fcff3a00fd
:100ab000000006008000eb00000005004f89de000a
:100ac0008201780087033700040020006a033700a2
:100ad000c70ade00f107b200f50fb20008003200cd
:100ae000e1cf4200020032000170a00024000500a6
:100af000810f700001003200040805004400050069
:100b0000810f700002003a00140005008502e90020
:100b10000000400081c04800fcff3b000170a000c5
:100b20002400050007f82700078361000638e1006c
:100b300004003a00f70720008783610087037100f3
:100b400001003a0003f0a200889fbe008a9fbe0009
:100b50008c9fbe00470ade000480a100c71ade0099
:100b60000580a100070028000785600087856100d7
:100b7000f70f20000720e1009e0032000728e10067
:100b80009c003200010678000400e000b40032004e
:100b9000f7072000878060000170a0000500e000da
:100ba000c0003200f7072000878161000370a000b9
:100bb000050652000f003a000b50e1000b00320016
:100bc0000308e10002003a000200e1007e0032006a
:100bd0000204500083845800040031000001fd002d
:100be0008101fd008402fd008a05fd006044b8001b
:100bf000210037000520e10005003d000001fd0057
:100c00008101fd008402fd008a05fd0005065200f9
:100c10007a60e100050035000170a1004722dd0087
:100c2000848070008a807000630037006044b800e0
:100c3000ef02660007ff2f00070666000500e000d0
:100c400006003400f08312008714dd000511de0079
:100c5000071bdd00060171008519de007060e100f0
:100c6000050035000904780082047800030178004b
:100c70008001eb00700656000b50e10003003a00c3
:100c80000200400083804800040037006004140024
:100c9000e0841c0002005800838058000188a300f3
:100ca000060032008100d1000080d3008984d30087
:100cb0000884d3000402e800270037000178a3006d
:100cc00025003a000100e000030032008186cf00d9
:100cd000698656000a0037008c0020000000e00002
:100ce00004003a0009007800880478000004eb0052
:100cf000700252008086cf000d0646000c06e90007
:100d00007060e1000600350080007800090078007e
:100d1000880478000004eb00700656007002520050
:100d20000c00e0000c0034008c08dd00f00316001d
:100d30000703de00868070000c00dd00074bde003c
:100d4000060070008c4cdd000743de0086847400d2
:100d50000c44dd000c0252006120e100200035004f
:100d6000610160000700280087816400f7ff270009
:100d700087836400070374000300e000060032006c
:100d800082037300040032000000e800e0804800a5
:100d90000188a3000e003a00f70f20000720e100b1
:100da0004a003d000170a1004722dd008100720071
:100db0008a8070000000be004f06be004f05be00d6
:100dc0004f04be00000006006000b800faff3700c4
:100dd0008100d1000080d3000402e800eeff37005c
:100de0000401780089017400a10107008a80700065
:100df000f1ff3700f7010700070278000001fd004e
:100e00008101fd00f301070087027800850372006d
:100e10000778a300040032000001fd008101fd00fd
:100e200006020700e4ff3700850362000768a3009d
:100e3000080032000b50e10003003200f0ff2f00e9
:100e4000f1ff2700dcff37000001fd008101fd00fc
:100e5000d9ff37000468a300d7ff3200faff37003c
:100e6000f8ff2700888360000b003a000000e000d4
:100e700009003a0083036400828373000200320099
:100e80000200be00ccff37000b50e100ceff3a005d
:100e90000200be00c8ff370014002000810064007b
:100ea0003eff3700f8ff27008883610004003a0006
:100eb0000200e00002003a008c007800beff37001c
:100ec000150020008301640039ff370001f8270076
:100ed0000000200081007500b7ff3700889fbe002a
:100ee0008a9fbe008c9fbe001b0020000202be0035
:100ef0000586680006002800060666004709de0031
:100f0000f20fb200820032000243e800800032009b
:100f1000c729de00f30fb2007d0032000343e80072
:100f20007b003200f107b2000170a000f507b200ab
:100f30000570a000c708dd004903de008680700050
:100f40004700dd00c72add004923de0086827200eb
:100f50004722dd000305510004035000858358003b
:100f60000300310000004000818048000a05e900cc
:100f70008c1f78008a9fbe000400500085805800b6
:100f80000402420085824a0000004000818048003f
:100f90000005eb000004be006033b8000406be008c
:100fa0000d48e10056003100110009004dccd80079
:100fb0000c01b8000d02b8008481410060824a0033
:100fc0008283530003045c0084845c0060055d0040
:100fd0000a00e00025003a00800578000d40e1009d
:100fe00049003100880078000700780011000900ee
:100ff0004d88d8000c01b8000d02b8008481410072
:1010000060824a006003110083835b0004045c007b
:10101000e0845c000900e00021003a004f01be00be
:101020000300e0002b003200e301600007067300bc
:101030008c81710001003200640070004200de000b
:101040004e5edd000c007000c258de0001e0a00022
:1010500083010700cf017800818071004f06be0038
:101060004f05be004f04be00000006008c83430005
:101070000d044c00e0844c0060054d000000e900c8
:101080000a00e000d4ff32008c8343000d044c00c2
:10109000e0844c0060054d000000e900ceff370001
:1010a0000c0343008d834b0060044c00e0844c0033
:1010b0000000e9000900e000d8ff32000c03430003
:1010c0008d834b0060044c00e0844c000000e9007c
:1010d000d2ff37004200de004e5edd000c007000e3
:1010e000c258de0001e0a000cf0178000300e0005c
:1010f000daff320060001000e0801800d7ff3700f0
:10110000f0ff2f00aaff3700f0ff2f00b9ff3700d4
:101110000404be002f010700870678000004fd00cc
:101120008104fd002b010700078366000678a300f9
:10113000030032000960a7000800be002c00370041
:101140000d78a300020032000800be00280037001e
:101150000778a30026003a0001f0a10009f0a100e1
:101160000668a30003003200f1ff2700f0ff2f0004
:10117000baff37000d68a300030032000800be006c
:101180008c807000b5ff37000768a30007003a00a5
:101190000648a30003003200f1ff2700f0ff2f00f4
:1011a000aeff37000d48a300030032006000b80016
:1011b0008c807000a9ff37000748a30004003200ac
:1011c00001f82700000020008c807000a3ff37008a
:1011d000760107000004fd008104fd00020578008f
:1011e000720107000802be008a01780059ff37002b
:1011f0000160a00012022000e284880097ff3700ff
:101200000100e000120032000500e0001000320092
:10121000889fbe008a9fbe008c9fbe000006eb0028
:1012200001f8a3000300320060001000e080180005
:101230000cf0a00005f8a3000300320060021200c9
:10124000e0821a000cf0a2008005eb0041ff37009d
:101250006000b80002000500038368000700280052
:1012600007036300470ade000480a100c71ade00fe
:101270000580a100f70f20000720e10042003200a6
:101280000728e10040003200889fbe008a9fbe0010
:101290008c1f7800f107b200f307b2000400e000f1
:1012a000640032000170a0000500e0006800320018
:1012b0000370a00085054200eb07b1000204b800ee
:1012c0000302b8008484440060854a00020ab80022
:1012d000848444000a854a00030ab80004054500d6
:1012e000040033000804d0008984d2000a85d200ab
:1012f0008b05e9006158e1003d0035000210200037
:10130000090161000308200089816100f7072000be
:101310008783640008867300c84cde00c853dd0074
:10132000878474004855de000300e00006003200a8
:1013300082037600040032008904e80060054d0055
:101340000a88a3000c003a00f70f20000758e100bc
:1013500044003d000a70a100c75ddd000a857500ec
:101360008a007300090078004f0678004f05be0020
:101370004f04be00000006000a05d1008984d30096
:101380008b05e800f0ff3700881f7800060478001e
:1013900090000700070278000001fd008101fd00b8
:1013a0008c00070087027800850372000778a3008d
:1013b000050032000001fd008101fd009f000700d3
:1013c0004f04780000000600850372000748a30060
:1013d00003003200f0ff2f00f1ff2700f8ff370075
:1013e0000000200001f8270088807000f4ff37001b
:1013f000880178004848dd00808171004848de009f
:10140000c850dd0001007000c850de0006047800fe
:101410000b0178001600070088807000d2ff3700ab
:101420000500e00005003200170020003a00070028
:101430009dff370081037000f9ff3a0086007800b5
:101440004f0678004f05be004f04be0000000500a7
:1014500083037100f9ff3200270020002e000700ef
:1014600094ff370001f8270086807000f4ff3700f2
:101470000100e00026003200610111007810e10057
:1014800023003c006022b8007010e1000400350029
:1014900080027800010078008000eb0070015100ac
:1014a0000200e0000900340070031100062add008c
:1014b000822ade008603dd00878272000200de00e1
:1014c000860bdd00070070008208de008481710059
:1014d000f4ff270004826200848171000400280068
:1014e000848262006102600005f0a6000000060030
:1014f00004827100070032000000e800e08048002c
:10150000000006000002be006000b800efff3700d8
:101510006000b80000000600889fbe000004eb00d9
:101520006138e10016003a000100e00008003a00ce
:10153000c800de004800dd00880020000100e00057
:1015400003003a00c800de004800dd0068044400e3
:101550008184cf00e9845400060034008908dd004e
:10156000f08314008703de00878070000900dd002f
:1015700009044400610214004f04be00000006008c
:101580000300e00008003a00c811de004811dd0049
:10159000880020000300e00003003a00c811de00cc
:1015a0004811dd00680444008384cf00e9845400be
:1015b000060034008919dd00f08314008713de0073
:1015c000878171000911dd0009044400e102140063
:1015d000e9ff37002700200001f0a70017002000d6
:1015e000470bde00f60fb200040032000643e800ad
:1015f0000a0032004702b300000006000103780031
:10160000f607b2000603700002003a000703b300b9
:10161000000006008702b300000006000103780006
:10162000f607b20006037000020032000770a00047
:10163000000006000760a000000006000478a30078
:10164000040032000578a300030032000168a30003
:1016500001003a000200be000160a0000000060088
:1016600081017000270032008002eb0001f8a30026
:101670000300320060001000e08018001500200018
:10168000f40720000202420020003400f70320008b
:1016900087036000060420000003630002082000a6
:1016a000000161004700de00c909dd000080710013
:1016b000c708de000600e000080032008703710062
:1016c000060032001000b0000180b0000188a300c5
:1016d00002003200c108de000402e800f107b20097
:1016e000f30f20000320e10003003d004722dd004e
:1016f000810072002900370001f827000000eb008c
:10170000260037006000b8000000060068021200e2
:101710007f20e100020034006000b8001f003700a5
:101720006011b8007020e1000400350080017800ed
:10173000010078008000eb00700252000400e0001d
:1017400009003400f00312000719dd008419de00df
:101750000703dd00868171000400de00070bdd0059
:10176000060070008408de00f7ff27008383630013
:10177000870371000600280003036300070032009e
:101780000700e00003003a0061016000028173007d
:10179000020032001000b0000180b0000500a60079
:1017a0000000060001f0a000000006004f0ade0065
:1017b0004709de00f107b200f20fb2000b00320061
:1017c000f207b1000170a000c708dd00c901de000a
:1017d000838070004700dd000400a60000000600c2
:1017e00060001000e080180000000600810f70000b
:1017f00001003a00000006008182cf000500e000f1
:1018000010003e008082cf00ee8242007028e1008e
:101810000400390007003e00800078000000eb0063
:101820000e003700708312008600de000500dd0028
:101830000a003700708352008600dd000000eb00d4
:1018400006003700e28252008508dd007083120036
:101850000603de00868070000500dd007507b0001d
:101860000501ea000400a600000006006000100068
:10187000e080180000000600889fbe008a9fbe001e
:10188000841f78007c0007004f00780011003300af
:10189000f0ff2f00838f6c0006003b0004056500fd
:1018a0000a00a7000800370009f0a6001000200079
:1018b00008003700820f5400838f5c00030039005a
:1018c0001000200001003e000000200009f0a700e9
:1018d0000000ea004f05be004f04be000000e0001b
:1018e00000000600881f7800030478000300e00071
:1018f00007003d0060001000e08018006001190042
:10190000e081190002003b0001f02d0003003700c8
:101910000400070008f0a70001f0a0004f047800c1
:1019200000000600889fbe008a9fbe0000827000f3
:101930000402710004827100260032000004be001f
:101940000200be006011b8006b0920009502200063
:101950000182cf000a0039000541b1000082cf00aa
:10196000070039000541b1000982cf0004003900a9
:101970000541b1000882cf00010039000541b100e6
:1019800005425200120032000a003b0082817100c1
:10199000610164008100d1000080d3008984d300fc
:1019a0000884d3008b05e8000442e800f7ff3a0002
:1019b000070037000804440089844c0000004800f8
:1019c000818048008b05e9000442e900f9ff3a00f4
:1019d000030007004f05be004f04be0000000600d4
:1019e00081002000618055000b003d000b002000ad
:1019f00061fe2f000100e1001d00340082817100b2
:101a0000610164008904d1000884d3000000e8006b
:101a1000faff3a00710020006100640003007000ca
:101a2000020060000900320061044400e0844c00c0
:101a30000988a500050032008b05e8006808e10070
:101a400002003a008904d1000884d300f20f20007c
:101a50000258e10005003d00c75ddd00f907b20056
:101a60008980750008007800000006000bf8270048
:101a70008b007800000005000004be0014fc070085
:101a80000003be000405be000200be0010fc0700fb
:101a9000844f7500000006000400fa00889fbe0015
:101aa0008a9fbe008c9fbe000205be000bf0a10005
:101ab0000800200009f82700880f5500898f5d0075
:101ac00005003e000003be0007f0a100880f530090
:101ad000898f5b00060036001bfc07004f06be0026
:101ae0004f05be004f04be000080fa000000060053
:101af0000800200009f82300880f5100898f590041
:101b000002003a0097000700f4ff37004e1cde0089
:101b10000900200088bf9f0099bf9f000fbe97005b
:101b2000620466008004eb004f0ade00050020001e
:101b30000404740085847400e00f5300e08f5b00a0
:101b400009003a00e20f5400e08f5c007f00320091
:101b5000e20f5400e08f5c00e0ff3900e30f540017
:101b6000e08f5c005f003200e00f5500e08f5d0009
:101b700008003a00610064008000eb00e00f5000b4
:101b8000e08f580074003200b0fd200091fc2b0063
:101b9000d2ff37000400200005f82700840f55000d
:101ba000858f5d000f003a008a0f53008b8f5b001a
:101bb00040003a00e10f5400e08f5c005800320012
:101bc000e00f5400e08f5c0058003200e20f540038
:101bd000e08f5c002b003200e30f5400e08f5c00cc
:101be000310032000c0020000dd020000a02460017
:101bf0008b824e00840f5300858f5b00ddff3e001b
:101c00000400200005f82700840f5300858f5b0037
:101c1000d8ff3200620264008002eb00e00f520045
:101c2000e08f5a00050032000606460087864e0007
:101c30008c0f55008d8f5d002d003e00a7fc070026
:101c40008101070047000700e10f5400e08f5c00ae
:101c500029003200e00f5400e08f5c009fff32004b
:101c6000e20f5400e08f5c0025003200e2d22b002e
:101c7000b33b2300b4fb0700b2fd20009304240013
:101c8000250037000200200003042400b0fd2000de
:101c90009104240070fd07000200200003e82300e7
:101ca0006dfd07008dff37000200200003042c00ab
:101cb000f6ff3700e10f5400e08f5c001e00320099
:101cc000e00f5400e08f5c001e003200e20f540071
:101cd000e08f5c001d003200e30f5400e08f5c00d9
:101ce000c0ff3a00b0fd200091042c007bff3700bc
:101cf0006000b800d4ff370001f0a20077ff370082
:101d0000e2d22b00b33b23008ffb07000001be0093
:101d1000b0fd20009104240082fb07006fff370014
:101d2000b0fd200091f42b006cff3700b0fd2000c7
:101d300091f4230069ff3700000020000100280013
:101d400066ff37006000b80064ff3700b0fd200078
:101d50009104240061ff3700b0fd200091fc2300b6
:101d60005eff3700ea874700889fbe008a9fbe005b
:101d70008c9fbe008e1f78000002be004f0dde005b
:101d80000b002000000478008504780009f0a10011
:101d9000f0ff2f00f1c72400800f5400818f5c00fa
:101da000100036000000200001f82700800f5400ca
:101db000818f5c0025003e000200200003382000d7
:101dc000a0fd200091fc23005ffb07000002be0085
:101dd000e00f5500e08f5d001c00320005f0a2000e
:101de0001a003700f0ff2f00f1ed2300800f5400a0
:101df000818f5c001c003e000087eb00f0ff2f008d
:101e0000f1972300800f5400818f5c0033003e0067
:101e10006000b80003f8270085806100e00f5000e3
:101e2000e08f580009003a000401be000400be0023
:101e3000f4b79f0085bf9f0007fd0700d0b79f0044
:101e4000e1b79f007fb297008fba97000400be00f1
:101e50004f0778004f06be004f05be004f04be007e
:101e6000af00b100000006000400be00f60007004d
:101e70000006be00f0ff2f0071f92300800f540010
:101e8000818f5c0055003e00f0ff2f00f1f223002f
:101e9000800f5400818f5c0041003e000c01be00a9
:101ea0000c00be0028fb07000200200003f82300fe
:101eb0001cfb07000004be000200200003002400f9
:101ec0000c00be0020fb07000001be000800be00a1
:101ed00002fc07000002be000007eb000401be0088
:101ee0000400be00f4b79f0085bf9f00dafc070026
:101ef0000006be000001be00d7fc07000004be00c3
:101f000052c22a00c3d72300d3fc0700d2502f00af
:101f100013e123000cfb07000801be00cefc070004
:101f200092aa2a00a3ea230007fb07000c01be00c7
:101f3000c9fc07000006be0072242100a3dd2b00af
:101f40000800be00c4fc070082a92c00c3e42300e3
:101f5000f4fa07000801be00bffc07000001be0044
:101f60000c00be00f8fa07007fb297008fba970006
:101f70000401be00b8fc07000003be000e00e00034
:101f80007fb297008fba970032003d000001be007b
:101f90000400be00e3fa07000002be00abff3700fa
:101fa0000200200003f823000c00be00ddfa070049
:101fb0000004be000200200003f823000c00be0055
:101fc000e1fa07000001be000800be00c3fb0700e5
:101fd0000002be001e002000c0ff3700f0ff2f00ef
:101fe000b1012400800f5400818f5c0012003e007c
:101ff0000200200003fc23000c00be00c9fa070009
:102000000004be000200200003fc23000c00be0000
:1020100091fc07000200200003f82300cafa070021
:102020000001be000800be00acfb07000002be00bd
:102030002e002000a9ff37000c01be000000200088
:1020400001f82b00a5fb07000002be003e002000a7
:10205000a2ff37004277dd00686021000e044400d3
:10206000605f21000e0740001e0178009e01900075
:102070000600be00f4b79f0085bf9f00a9fa0700c5
:102080007fb297008fba97000401be00a5fa07003f
:102090000001be001800780098009000a1fa070027
:1020a0004aff37000400fa000001be0003f0a1005f
:1020b000a4fd200095f42300840f5100858f590062
:1020c0000e003e00f4ff2f00f5972300840f51000f
:1020d000858f59003a003e000200200003b8270017
:1020e00099fa0700e0bf9f00f1bf9f0000002000a9
:1020f00001f823000080fa00000006004f0ade000d
:1021000005002000163d2500b7072400860f51006a
:10211000878f59001b003e0036be2c00670124004b
:10212000860f5100878f59000a003600b2fd20004b
:10213000930424000400e0000400320082fa070047
:102140003a02070001f0a200eaff370075fa070023
:10215000fbff37000400e00005003200b2fd200064
:1021600093fc230078fa0700bb020700e1ff370069
:102170000001be00b0fd200091fc230069fa0700b9
:10218000f9ff3700561d2300270e2400860f51004b
:10219000878f590014003e00f6dd2e00f70a240058
:1021a000860f5100878f590009003600b2fd2000cc
:1021b000930c24000400e0000300320062fa0700e0
:1021c0001a020700cbff370056fa0700fcff370062
:1021d0000400e0000100320001f0a20042be2c0029
:1021e00063092400e5ff3700f4ff2f00f5f727000f
:1021f000840f5100858f5900040036000001be0095
:102200000200be0047fa0700baff3700c2ff2f00e6
:102210000f01410039020700630160006fb89700a9
:10222000ffb89700e10f510005003200e20f5100a6
:10223000c3ff32000200e000cbff3a00e0ff3700ae
:1022400001f0a200c8ff37000101780002f0a100f0
:1022500082007800000006000400fa00889fbe009b
:102260008a9fbe000203410083834900e00f5300b0
:10227000e08f5b000f0032000202be0005f0a100fb
:102280000800200009f82700880f5200898f5a00a3
:1022900008003e00a0bf9f00b1bf9f00470dde00b9
:1022a0000b002000f40f20000a056200840f550087
:1022b00007003a00e8fb07000001be0007fb07002b
:1022c0004f05be004f04be000080fa00000006006b
:1022d0000002400081824800840f5300858f5b001c
:1022e00006003900840f5300858f5b00f4ff3a002d
:1022f0006011b800d8fb0700f1ff37000a00e000ca
:102300004c003a002fbb9700bfbb9700493add0055
:10231000c732de00850272004932dd00e00f520054
:10232000e08f5a003f003d00610215002fbb97006f
:10233000bfbb9700040478000804e90003003300e1
:102340000603430087834b00fbff37000602be00f5
:10235000471bde00070020000683fb000600e000ac
:102360003d003a00491cdd00c714de0089047400fa
:102370004914dd00e00f5400e08f5c0032003d00a6
:10238000e10313000204be008703e90003003300e9
:102390000804440089844c00fbff37000801520008
:1023a00089815a00860f55002f003c00e00f510034
:1023b000e08f590004003500e00f5100e08f590014
:1023c000cbff32000202be004728de0001002000e1
:1023d000e00f5000e08f58002e0032000a00e000ad
:1023e000300034000000200001f82f0004024000fb
:1023f000858248006150b900c700dd000000200060
:1024000004007000858070006022b800020028007f
:10241000bfb99700830261000000720081807200e2
:10242000a7ff37000a05e9000402420085824a003e
:10243000baff37002fba9700bfba9700f507b2006e
:102440000570a000c2ff37000603e900080444003d
:1024500089844c00c7ff37000204be00f907b200b0
:102460000970a000cdff3700e00f5100e08f590048
:1024700004003500e00f5100e08f59009cff32004e
:102480000202be000402420085824a000a05e900f9
:10249000c2ff37000402420085824a000a05e900b3
:1024a000c9ff3700610515000400be000a05e900f8
:1024b000030033008100d1000080d300fbff370010
:1024c000d1ff37000800fa00889fbe008a9fbe0037
:1024d0008c9fbe000004be004708de000086fb00a3
:1024e00050092000800f560014003c0088bf9f0058
:1024f00099bf9f000805be00e00f5400e08f5c000c
:1025000001003d000bf0a2000200200003b02400f7
:102510000a00be008cf90700d2072000820f560087
:102520000c003c00e0b79f00f1b79f006011b800bd
:102530000800be0048fb07000004be000800be0003
:102540004f06be004f05be004f04be000080fa00db
:10255000000006000200200003b0240071f907000b
:102560000a01be006ff907000006be000001be00b0
:102570000a00be0074f907000004be00020020003b
:1025800003f023000c00be000ef907000000e0007d
:102590000c0034000200200003f823000800be00f5
:1025a00060f907000004be000fb897009fb89700bd
:1025b000e00f5000e08f5800e0ff3d0009f0a2005e
:1025c000deff37000200200003f02b000c00be00ed
:1025d000faf807000000e000f3ff3c0002002000d2
:1025e00003f823000800be0057f90700edff37008d
:1025f0000400fa00889fbe000004be008900780035
:1026000001f0a100a4fd200095f42300840f5000e8
:10261000858f58001e003e00f4ff2f00f597230021
:10262000840f5000858f580016003e006000b800ef
:1026300003f8270089806100e00f5000e08f580008
:102640000b003a0002002000033820000800be0002
:1026500001fb07000001be00c2bf9f00d3bf9f0067
:102660000800be004f04be000080fa000000060013
:102670000200200003b827000800be0032f907005e
:10268000f4ff37000800be00730107001800370090
:102690004f49de0003002000143d2500b50724004b
:1026a000840f5000858f58001d003e0034be2c0062
:1026b00065012400840f5000858f58000e003e00f5
:1026c0000800be000200e000b2fd200093fc2300e1
:1026d000050032001cf90700d40007000004be000a
:1026e00009f0a200deff37000ef90700cf00070057
:1026f0000004be00daff37000800be000200e00060
:10270000b2fd200093042400030032000ef90700fc
:1027100001f0a200dcff370002f90700fcff3700e0
:10272000541d2300250e2400840f5000858f58006f
:1027300017003e00f4dd2e00f50a2400840f50003f
:10274000858f580009003e000800be000200e0002e
:1027500042be2c006309240002003200faf8070090
:10276000e2ff3700eff80700dbff37000800be008c
:102770000200e000b2fd2000930c240002003200b1
:10278000f1f80700c0ff3700e6f80700beff37008a
:10279000f2ff2f00f3f72700820f5000838f5800bd
:1027a000050036000801be000800be00ddf8070085
:1027b0000004be00aaff370082ff2f000f01410076
:1027c0000800be00cd000700630160004fb897000d
:1027d000dfb89700e10f5100c4ff3200e20f510053
:1027e000cbff32000200e000bbff3a00a6ff37003b
:1027f000889fbe008a9fbe008c1f78000004be0028
:102800000003be006055b80004f827008905620087
:102810000400200005f82700840f5500858f5d0017
:102820000b003a000001be008bfa07000001be0059
:102830000800be00c4f807000004be000800be0087
:102840004f0678004f05be004f04be000000060092
:10285000e00f5000e08f580010003c000002be0066
:1028600005f0a100e00f5200e08f5a00f3ff3200a4
:10287000e00f5000e08f580008003d0010022000db
:1028800000b188000801be000800be00a5f80700de
:102890000001be0091f90700e7ff370047bdde00e9
:1028a000cfbdde00e00f5500e08f5d000c003a0068
:1028b0000603430087834b0061004500e0804d0024
:1028c0000001eb00870178000308b200e00f51001f
:1028d000e08f59004d00320060051500e0851d00b5
:1028e000fa07b1000b80b1000600be00f107b2008c
:1028f0000170a000610165008001eb00e00f510054
:10290000e08f590002003200000040008180480042
:102910008b85d1000a85d3000000400081804800eb
:102920009c01200002002000031020006044b80039
:102930006033b8000602410087824900800f5200d0
:10294000818f5a0006003c00040341008583490042
:102950000400500085805800080441008984490023
:1029600000004000818048008301d1000281d30033
:102970000c06e9000c00e000eeff3a00e00f50000a
:10298000e08f5800160032000226240023da2000cf
:102990000000200001f8230062f807000200200078
:1029a00003f8230007f807000000e0000c003500e2
:1029b0000226240023da20000000200001f8230072
:1029c00061f807000200200003f82300fdf707006c
:1029d0000000e0000f00340062044400e0844c007a
:1029e0008984d1000884d3000000200001f0230076
:1029f0000800400089804800c755dd000a0020001b
:102a00000a0440008b8448008cff37000005be009c
:102a1000a7ff370061004400e0804c00000478000c
:102a20000800a10081047800edff37000400fa00df
:102a3000889fbe008a9fbe008c9fbe000001be0022
:102a400005fa07000004be000001be0002fa0700fc
:102a50000005be000200200003f02b000800be00ad
:102a6000fdf907000200200003f8230036f80700f4
:102a70000006be00f2a92a00a3d223000a00be006d
:102a8000f5f907000001be000c00be002ef807009b
:102a90000002be0072a12900c37c23000800be0012
:102aa00084bf9f0095bf9f00ebf90700f243200011
:102ab00063ab23001bf807000006be000a01be003e
:102ac0000800be00e4f907000001be000c00be00d3
:102ad000e1f907000001be000fba97009fba970006
:102ae0000400be0018f807004f06be004f05be00e8
:102af0004f04be000080fa00000006000400fa0047
:102b0000889fbe008a9fbe008c9fbe000006780092
:102b1000810478008206780001f0a100a2fd200067
:102b200093dc2400820f5000838f580023003e0066
:102b300032982f0023f2230089007800c6f907009d
:102b40000200200003b42400fff707000200200069
:102b500003b42400f3f707000005be009bf707004d
:102b600000047800a2fd200093fc23000a00be00b0
:102b7000b9f907000001be000c0078008900780058
:102b8000e8f707000002be00325a2800832823001d
:102b90000a00be0084bf9f0095bf9f00aef90700ea
:102ba0000001be000fba97009fba97000400be0054
:102bb000dcf70700808ebe000b003700f2ff2f000d
:102bc000f3f72700820f5000838f58000c00360067
:102bd000000178008901780089007800d1f70700aa
:102be000808ebe000004eb00080078004f06be0097
:102bf0004f05be004f04be000080fa000000060032
:102c0000890078004c0007000005be0032982f00b4
:102c100023f2230090f907000200200003f02300b4
:102c2000c9f7070055000700000478002dfb0700d6
:102c300032982f0023f22300a8f807000001be00fd
:102c40000a00be00b7f707006000b800a0069800b1
:102c5000b1069800d7ff37000400fa00889fbe0035
:102c60008a9fbe008c9fbe000006be000001be0011
:102c700079f907000004be000001be000c00be0090
:102c800075f907000005be000801be000800be007f
:102c900071f907000a01be006ff907000002be00cb
:102ca000c2c32600636323000800be0084bf9f00e8
:102cb00095bf9f0068f90700f27c20000395230070
:102cc00098f707000001be000fba97009fba97005f
:102cd0000400be0060f907000002be004288280020
:102ce00083c023000800be0084bf9f0095bf9f00e3
:102cf00059f90700b2aa2a00a3e2230089f70700c6
:102d00000a01be0054f907000c01be008ef707004f
:102d10000001be000fba97009fba97000400be00e2
:102d200089f707004f06be004f05be004f04be00e6
:102d30000080fa00000006000400fa006011b800ec
:102d4000e2bf9f00f3bf9f006fbb9700ffbb9700e0
:102d50000002be00f0ff2f00f1ff2f00f2ff2f0056
:102d6000f3ff27000000620081806200020163001f
:102d7000838163000080fa00000006000003be00ab
:102d800053f707006011b8000470a70007f0a10016
:102d90006509b1001b0032001200350086022000d8
:102da0000628e10008003500f3ff2700f2ff2f009e
:102db0006110b9000700e00018003b000300280084
:102dc0006000b8000200050000004000818048005b
:102dd00002014900838149008502e900faff3a00b7
:102de00008003700f88f420002003c008000eb0032
:102df000000005008100d1000080d3008502e800ba
:102e0000fcff3a000700e00004003b0060001000f7
:102e1000e080180060011900e08119000000060040
:020000040000fa
:102e20000000fa006000b80040ae880051ae880093
:102e30006000b80060ae880071ae8800b0fd200070
:102e400091042c0080ae880091ae88006000b8002c
:102e5000a0ae8800b1ae88006000b800c0ae8800a7
:102e6000d1ae88006000b800e0ae8800f1ae880006
:102e70006000b80000af880011af88006000b800a3
:102e800020af880031af88006000b80040af8800f4
:102e900051af8800000000000080fa00000006002a
:102ea0000200fa00000f78009e007800418488003c
:102eb000000000000080fa00000006000000fa0098
:102ec000408480000080fa00000006002600fa001e
:102ed000889fbe008a9fbe00408480000000e00002
:102ee000ca033200e4ae8000f5ae800040ae800040
:102ef00051ae80000001be000400be0009f70700cb
:102f00000001780001007800820478000004780055
:102f100004af800015af800060ae800071ae80000d
:102f20000001be000400be00fef6070000017800ac
:102f30000100780082027800000278000900780021
:102f4000880078000001be00050078008400780049
:102f50000000be00d0fa07006007980071079800d3
:102f600080ae800091ae80006e019000fe01900066
:102f70004f1207000002be0080ae800091ae8000bc
:102f80000001be000400be00e6f60700000f980036
:102f9000110f98000e0990009e09900022af880042
:102fa00033af8800c4ae8000d5ae8000c0ae8000d4
:102fb000d1ae80000001be000400be00a6f80700ec
:102fc0000001780001007800820478000004780095
:102fd000c0828000d18280000001be00daf60700c6
:102fe000000178000100780082017800000178007b
:102ff00003007800820078000001be00090078001c
:10300000880078000000be00b4f70700008fbe0003
:10301000c0ae8000d1ae800002002000a3372400a3
:10302000aef707002007980031079800a0ae800097
:10303000b1ae800002002000a3372400a7f70700ec
:103040004007980051079800a4ae8000b5ae8000fc
:10305000a0ae8000b1ae80000001be000400be0042
:103060007df80700000178000100780082047800f4
:103070000004780020838000318380000001be00be
:10308000b1f60700000178000100780082017800a5
:103090000001780003007800820078000001be0083
:1030a00009007800880078000000be008bf7070058
:1030b000200f9800310f9800e4ae8000f5ae80003c
:1030c00040ae800051ae80000001be000400be0092
:1030d00094f607000001780001007800820478006f
:1030e00000047800e4ae8000f5ae800040ae8000c1
:1030f00051ae80000001be000400be0089f607004a
:103100000001780001007800820178000001780059
:1031100003007800820078000001be0009007800fa
:10312000880078000000be004bf80700000178001e
:1031300001007800820478000004780004af800069
:1031400015af800060ae800071ae80000001be004f
:103150000400be0073f6070000017800010078004b
:10316000820578000005780004af800015af80006c
:1031700060ae800071ae80000001be000400be00a1
:1031800068f60700000178000100780082017800ed
:103190000001780003007800820078000001be0082
:1031a0000b0078008a0078000000be002af80700b3
:1031b00000017800010078008201780000017800a9
:1031c00003007800820078000001be00090078004a
:1031d000880078000000be005bf607000001780060
:1031e0000100780082017800000178000300780077
:1031f000820078000000be007dfd0700400f9800af
:10320000510f98004e099000de09900042af8800ef
:1032100053af8800508480000000e00022003a0094
:1032200060848000e10f50001d003a00c05e210064
:10323000fc004700b0187800a0107800e48040003f
:1032400064004000b0187800a0107800e4804000ce
:1032500064004000900878008180e8000080e80069
:103260006e089000fe089000e0ae8800f1ae880085
:103270000e1090009e10900000af880011af8800e3
:103280002e1090000000e00002003200300020000c
:10329000010037001000200050848800d902370058
:1032a0008c30ef00d702370050848000e10f5000cf
:1032b0000300320050848000e30f50005a013a00ae
:1032c000c0ae8000d1ae80006011b800bbf5070031
:1032d0000000e00004003d001e0078009e00900009
:1032e00001f0a200008fbe006011b8001e0078003f
:1032f0009e009000b3f507000000e00006003500d6
:103300006011b8000e0890009e089000adf507000f
:103310000000e0000c003d006011b8001e007800c5
:103320009e009000a5f507000000e0005d003c0055
:103330006011b8000e0890009e0890009ff50700ed
:103340000000e00057003c000e0890009e0890002e
:10335000bf1007000004be001e0078009e00900011
:10336000bb1007000001be000800be0095f5070075
:103370000000e0004b0035006011b8000e0890001e
:103380009e0890008ff507000000e0001e0034004a
:10339000a8828000b9828000caae8000dbae8000c7
:1033a000c0828000d182800002002000a337240068
:1033b000caf6070000017800010078008201780059
:1033c0000001780003007800820078000001be0050
:1033d0000a00be00dcf5070000017800010078005b
:1033e00082027800000278000801be000500780023
:1033f000840078000000be00c1100700c0ae880045
:10340000d1ae8800d60037006011b8000e089000d9
:103410009e08900069f507000000e00001003500fb
:10342000cf003700a0828000b18280000004be007f
:1034300009f0a200caae8000dbae8000c08280002e
:10344000d182800002002000a3372400a3f60700e9
:103450000001780001007800820178000001780006
:1034600003007800820078000001be000a00be0060
:10347000acf50700000178000100780082027800b6
:10348000000278000801be00050078008400780082
:103490000000be0083100700c0ae8800d1ae8800d7
:1034a000af0037006011b8000e0890009e08900031
:1034b00044f507000000e00022003500c0ae8000a7
:1034c000d1ae80006011b8003ef507000000e000ba
:1034d0001c003400c8ae8000d9ae8000c0828000dd
:1034e000d182800002002000a33724007bf6070071
:1034f0000001780001007800820178000001780066
:1035000003007800820078000001be000800be00c1
:1035100084f507000001780001007800820278003d
:10352000000278006011b80005007800840078007f
:103530000000be005b100700c0ae8800d1ae88005e
:10354000770037006011b8000e0890009e089000c8
:103550001cf507000000e00022003500c0ae80002e
:10356000d1ae80006011b80014f507000000e00043
:103570001c003d00c8ae8000d9ae8000c082800033
:10358000d182800002002000a337240053f60700f8
:1035900000017800010078008201780000017800c5
:1035a00003007800820078000001be000800be0021
:1035b00065f50700000178000100780082027800bc
:1035c000000278006011b8000500780084007800df
:1035d0000000be004a100700c0ae8800d1ae8800cf
:1035e0004f0037006011b8000e0890009e08900050
:1035f000f2f407000000e00022003c00c0ae8000b2
:10360000d1ae80006011b800eef407000000e000c9
:103610001c003400c8ae8000d9ae8000c08280009b
:10362000d182800002002000a33724002bf607007f
:103630000001780001007800820178000001780024
:1036400003007800820078000001be000800be0080
:1036500034f507000001780001007800820278004c
:10366000000278006011b80005007800840078003e
:103670000000be000b100700c0ae8800d1ae88006d
:10368000270037006011b8000e0890009e089000d7
:10369000caf407000000e00021003c00c0ae80003a
:1036a000d1ae80006011b800c4f407000000e00053
:1036b0001b003d00c8ae8000d9ae8000c0828000f3
:1036c000d182800002002000a337240003f6070007
:1036d0000001780001007800820178000001780084
:1036e00003007800820078000001be000800be00e0
:1036f00015f50700000178000100780082027800cb
:10370000000278006011b80005007800840078009d
:103710000000be00fa0f0700c0ae8800d1ae8800de
:103720000e0890009e089000c90f07000004be001c
:103730002e009000be009000c50f07000001be00e3
:103740000800be009df407000000e00004003d00fa
:103750000e0990009e0990002207980033079800f8
:1037600080ae800091ae80002e019000be019000de
:10377000f5f407008001780001017800030078006b
:10378000820078000000be0080ae880091ae880004
:10379000c0ae8000d1ae8000c0878800d18788008d
:1037a000c0ae8000d1ae80006011b80083f4070085
:1037b0000000e00093013a000e0890009e0890007f
:1037c000a30f0700a2702d0033c223007bf4070073
:1037d0000000e000010035008a0137006e01900012
:1037e000fe01900082ae880093ae88006e019000ca
:1037f000fe01900002878800138788006000b800ef
:10380000908a8800a18a880050848000e30f5000cd
:103810000300320020002000508488007901370026
:103820008a30ef007701370050848000e20f5000ab
:1038300074013a006011b8004e089000de08900054
:10384000a1f407000000e000260132000e089000fd
:103850009e089000e40f0700a2702d0033c22300e1
:1038600056f407000000e0001e013d006011b800a2
:103870002e089000be08900052f407000000e000ff
:10388000060035006011b8004e089000de08900078
:103890004cf407000000e0000c003d006011b8008f
:1038a0002e089000be08900044f407000000e000dd
:1038b0005d003c006011b8004e089000de089000ea
:1038c0003ef407000000e00057003c004e08900066
:1038d000de0890005e0f07000004be002e08900076
:1038e000be0890005a0f07000001be000800be008d
:1038f00034f407000000e0004b0035006011b80010
:103900004e089000de0890002ef407000000e00052
:103910001e003400e8828000f9828000aaae800098
:10392000bbae800020838000318380000200200035
:10393000a337240069f50700000178000100780032
:10394000820178000001780003007800820078008e
:103950000001be000a00be007bf4070000017800f1
:103960000100780082027800000278000801be00a1
:1039700005007800840078000000be00600f07009a
:10398000a0ae8800b1ae8800d60037006011b80044
:103990004e089000de08900008f407000000e000e8
:1039a00001003500cf003700e0828000f182800006
:1039b0000004be0009f0a200aaae8000bbae8000e9
:1039c000208380003183800002002000a337240080
:1039d00042f50700000178000100780082017800bc
:1039e0000001780003007800820078000001be002a
:1039f0000a00be004bf407000001780001007800c7
:103a000082027800000278000801be0005007800fc
:103a1000840078000000be00220f0700a0ae8800de
:103a2000b1ae8800af0037006011b8004e089000ba
:103a3000de089000e3f307000000e00022003500fc
:103a4000a0ae8000b1ae80006011b800ddf30700c9
:103a50000000e0001c003400a8ae8000b9ae800079
:103a6000208380003183800002002000a3372400df
:103a70001af5070000017800010078008201780043
:103a80000001780003007800820078000001be0089
:103a90000800be0023f40700000178000100780050
:103aa00082027800000278006011b80005007800fa
:103ab000840078000000be00fa0e0700a0ae880067
:103ac000b1ae8800770037006011b8004e08900052
:103ad000de089000bbf307000000e0002200350084
:103ae000a0ae8000b1ae80006011b800b3f3070053
:103af0000000e0001c003d00a8ae8000b9ae8000d0
:103b0000208380003183800002002000a33724003e
:103b1000f2f40700000178000100780082017800cb
:103b20000001780003007800820078000001be00e8
:103b30000800be0004f407000001780001007800ce
:103b400082027800000278006011b8000500780059
:103b5000840078000000be00e90e0700a0ae8800d7
:103b6000b1ae88004f0037006011b8004e089000d9
:103b7000de08900091f307000000e00022003c0006
:103b8000a0ae8000b1ae80006011b8008df30700d8
:103b90000000e0001c003400a8ae8000b9ae800038
:103ba000208380003183800002002000a33724009e
:103bb000caf4070000017800010078008201780053
:103bc0000001780003007800820078000001be0048
:103bd0000800be00d3f30700000178000100780060
:103be00082027800000278006011b80005007800b9
:103bf000840078000000be00aa0e0700a0ae880076
:103c0000b1ae8800270037006011b8004e08900060
:103c1000de08900069f307000000e00021003c008e
:103c2000a0ae8000b1ae80006011b80063f3070061
:103c30000000e0001b003d00a8ae8000b9ae80008f
:103c4000208380003183800002002000a3372400fd
:103c5000a2f40700000178000100780082017800da
:103c60000001780003007800820078000001be00a7
:103c70000800be00b4f307000001780001007800de
:103c800082027800000278006011b8000500780018
:103c9000840078000000be00990e0700a0ae8800e6
:103ca000b1ae88004e089000de089000680e070054
:103cb0000004be004e009000de009000640e07007d
:103cc0000001be000800be003cf307000000e00059
:103cd00004003d004e099000de0990004207980064
:103ce000530798004e089000de089000580e070019
:103cf00072712b00138d230030f307000000e000e9
:103d00000c003d006000b800a0ae8800b1ae880095
:103d1000e0ae8000f1ae800040ae880051ae880079
:103d200000af800011af800060ae880071ae8800e7
:103d30008a30ef0080ae800091ae8000d9f8070095
:103d40004e019000de01900043f50700000178006d
:103d500001007800820278000002780040ae800006
:103d600051ae80000001be0005007800840078009c
:103d70000000be0074f307008001780001017800a4
:103d800003007800820078000000be0040ae88008a
:103d900051ae880080ae800091ae800014fa07001a
:103da0004e019000de0190002bf507000001780025
:103db00001007800820278000002780060ae800086
:103dc00071ae80000001be0005007800840078001c
:103dd0000000be005cf3070080017800010178005c
:103de00003007800820078000000be0060ae88000a
:103df00071ae8800a0ae8000b1ae8000a0878800c0
:103e0000b1878800060007000100370000000000ad
:103e10004f05be004f04be000080fa0000000600ff
:103e20002000fa00a0838000b183800000017800a8
:103e3000810178008000eb000e007800170f07006a
:103e400020af800031af80000001be0041002000a3
:103e50000e007800f40e070040af800051af8000e4
:103e60000001be00810020000e007800ee0e070069
:103e700080ae800091ae80000001be00c100200035
:103e80000e007800e80e0700c0ae8000d1ae8000c2
:103e90000001be00010120000e007800e20e0700c4
:103ea00040ae800051ae80000001be004101200004
:103eb0000e007800dc0e070060ae800071ae80005e
:103ec0000001be00810120000e007800d60e070020
:103ed000a0ae8000b1ae80000001be00c101200094
:103ee0000e007800d00e07000e01780001022000bd
:103ef000000120005e040700000000000080fa00be
:103f0000000006000200fa007b120700871107007c
:103f1000330c07004c0c0700550f0700d8110700a1
:103f2000550c0700251207003d1207006e0a070016
:103f3000750a0700bafb070080ae800091ae8000d2
:103f4000008788001187880040ae800051ae800055
:103f5000c0868800d186880060ae800071ae800087
:103f6000e0868800f186880000002000812c240073
:103f7000809fbe0000002000812c2400809fbe0096
:103f800000002000812c2400809fbe006033b80018
:103f900004002000051f24000200200003f8230075
:103fa0006010210042070700ec8757000000200046
:103fb000812c2400809fbe0000002000812c240062
:103fc000809fbe0000002000812c2400809fbe0046
:103fd0006033b80004002000051f24000200200008
:103fe00003f823006013210031070700ec87570016
:103ff00000002000812c2400809fbe0000002000d3
:10400000812c2400809fbe0000002000812c240011
:10401000809fbe000600200007f023006022b80049
:104020000200200003f22300601621002007070091
:10403000ec87570000002000812c2400809fbe00e8
:1040400000002000812c2400809fbe000000200082
:10405000812c2400809fbe000600200007f0230072
:104060006022b8006011b800601921001007070035
:10407000ec875700040037007c120700004f7800df
:104080001e40780071040700911207000000e00054
:10409000f9ff3c0004003700b612070010479800f3
:1040a0001e40900092060700cb1207000000e000bf
:1040b000f9ff3c0090738000004078006140600090
:1040c0000004e000020032001000200074fb070032
:1040d0007afb07000000e00002003200754ea800e5
:1040e000e9ff3700754ea900e7ff37000200fa002c
:1040f000004f78001e80fb00208888000000000030
:104100000080fa00000006000000fa0020d0bf0086
:104110000080fb006100b900f200200003002000d5
:10412000820f5000838f580079003e000006010086
:104130000f00370018003700210037002c0037002f
:104140002d003700380037003900370044003700b1
:104150004500370050003700510037005c00370041
:104160006b0037006a0037005b00370066003700dd
:104170007430ef007630ef000041eb006000b800d3
:10418000f90e070012c0b3006000b800f60e070079
:1041900010c0b30020f0b700a2838000b38380007a
:1041a000803e200001002000800f5100818f5900c7
:1041b0005900360020c0b30020f0b7005600370089
:1041c00060838000718380000041eb00e60e0700f1
:1041d000808380009183800012c0b300e20e07004c
:1041e00030c0b30020f0b70084cea8004b003700e9
:1041f0004d00070049003700608380007183800014
:104200000041eb00d80e070080838000918380007e
:1042100012c0b300d40e070050c0b30020f0b700a6
:10422000754ea8003d0037003f0007003b003700f7
:1042300060838000718380000041eb00ca0e07009c
:10424000808380009183800012c0b300c60e0700f7
:1042500070c0b30020f0b70084aea8002f00370074
:10426000310007002d0037006083800071838000db
:104270000041eb00bc0e070080838000918380002a
:1042800012c0b300b80e070090c0b30020f0b70012
:10429000856ea80021003700230007001f003700ab
:1042a00060838000718380000041eb00ae0e070048
:1042b000808380009183800012c0b300aa0e0700a3
:1042c000b0c0b30020f0b700848ea8001300370000
:1042d00015000700110037006083800071838000a3
:1042e0000041eb00a00e07008083800091838000d6
:1042f00012c0b3009c0e0700f0c0b30020f0b7005e
:10430000754ea800050037000700070003003700be
:104310002070ef00010037000000000000000000e6
:104320000080fa00000006000200fa000040eb00e6
:10433000004f780080858000918580000200200079
:10434000031f24009df107000000e00018003d005d
:10435000a0858000b185800002002000031f24009a
:1043600098f107000000e00011003400c0858000d3
:10437000d185800002002000031f240091f1070076
:104380000000e0000a003400e0858000f185800034
:1043900002002000031a24008af107000000e00058
:1043a0000300340010c0b300004f7800d102370082
:1043b000808580009185800002002000031f24007a
:1043c00080f107000000e0001f003400008680003c
:1043d0001186800002002000031a240079f10700f2
:1043e0000000e00018003400a0858000b185800046
:1043f00002002000031a240072f107000000e00010
:1044000011003400c0858000d185800002002000aa
:10441000031f240069f107000000e0000a003d00ce
:10442000e0858000f185800002002000031a24004e
:1044300062f107000000e00003003d0020c0b3006f
:10444000004f7800ab023700a0858000b185800066
:1044500002002000031f240058f107000000e000c4
:104460002a003500a0858000b18580000200200070
:10447000031f240051f107000000e00007003d0089
:10448000808580009185800002002000031f2400a9
:104490004af107000000e0001c003500a085800004
:1044a000b185800002002000031f240043f10700b3
:1044b0000000e00007003d00c0858000d18580003d
:1044c00002002000031f24003cf107000000e00070
:1044d0000e0035008085800091858000020020005c
:1044e000031f240035f107000000e0000a003d0032
:1044f000c0858000d185800002002000031f2400b9
:104500002ef107000000e00003003d0030c0b300c2
:10451000004f780077023700808580009185800009
:1045200002002000031f240026f107000000e00025
:104530001f003400a0858000b185800002002000ab
:10454000031f24001ff107000000e00018003400e2
:10455000c0858000d185800002002000031f240058
:1045600018f107000000e00011003400e085800031
:10457000f185800002002000031a240011f10700d9
:104580000000e0000a0034000086800011868000f0
:1045900002002000031a24000af107000000e000d6
:1045a000030034000040eb00004f78005102370058
:1045b000808580009185800002002000031f240078
:1045c000fef007000000e0001f003d0000868000b4
:1045d0001186800002002000031a2400f7f0070073
:1045e0000000e00018003d00a0858000b18580003b
:1045f00002002000031f2400f2f007000000e0008a
:1046000011003400c0858000d185800002002000a8
:10461000031f2400ebf007000000e0000a00340054
:10462000e0858000f185800002002000031a24004c
:10463000e4f007000000e0000300340010c0b30005
:10464000004f78002b023700808580009185800024
:1046500002002000031f2400daf007000000e00041
:104660001f003400008680001186800002002000b8
:10467000031a2400d3f007000000e0001800340003
:10468000a0858000b185800002002000031f240067
:10469000ccf007000000e00011003400c08580006d
:1046a000d185800002002000031f2400c3f0070012
:1046b0000000e0000a003d00e0858000f1858000f8
:1046c00002002000031a2400bcf007000000e000f4
:1046d00003003d0020c0b300004f78000502370002
:1046e000a0858000b185800002002000031a24000c
:1046f000b2f007000000e00011003d00c08580001e
:10470000d185800002002000031f2400abf00700c9
:104710000000e0000a003d00a0858000b185800017
:1047200002002000031a2400a4f007000000e000ab
:1047300003003d0030c0b300004f7800ed013700aa
:10474000808580009185800002002000031f2400e6
:104750009cf007000000e0001f003400a0858000ee
:10476000b185800002002000031f240095f007009f
:104770000000e00018003400c0858000d185800072
:1047800002002000031f24008ef007000000e0005c
:1047900011003400e0858000f185800002002000d7
:1047a000031a240087f007000000e0000a0034002c
:1047b000008680001186800002002000031a240079
:1047c00080f007000000e000030034000040eb0030
:1047d000004f7800c70137008085800091858000f8
:1047e00002002000031f240076f007000000e00014
:1047f0001f003400a0858000b185800002002000e9
:10480000031f24006ff007000000e00018003400d0
:10481000c0858000d185800002002000031f240095
:1048200068f007000000e00011003400e08580001f
:10483000f185800002002000031a24005ff00700c9
:104840000000e0000a003d00008680001186800024
:1048500002002000031a24005af007000000e000c4
:104860000300340020c0b300004f7800a1013700de
:10487000808580009185800002002000031f2400b5
:1048800050f007000000e0001f003400a085800009
:10489000b185800002002000031f240049f00700ba
:1048a0000000e00018003400c0858000d185800041
:1048b00002002000031f240042f007000000e00077
:1048c00011003400e0858000f185800002002000a6
:1048d000031a24003bf007000000e0000a00340047
:1048e000008680001186800002002000031a240048
:1048f00032f007000000e00003003d0010c0b300ec
:10490000004f78007b013700e0858000f185800052
:1049100002002000031a240028f007000000e00035
:104920001f003d00008680001186800002002000ec
:10493000031a240021f007000000e00018003d00e9
:10494000808580009185800002002000031f2400e4
:104950001cf007000000e00011003400a08580007a
:10496000b185800002002000031f240015f007001d
:104970000000e0000a003400c0858000d18580007e
:1049800002002000031f24000ef007000000e000da
:104990000300340030c0b300004f780055013700e9
:1049a000e0858000f185800002002000031a2400c9
:1049b00004f007000000e0001f00340000868000c3
:1049c0001186800002002000031a2400fdef07007a
:1049d0000000e00018003400808580009185800090
:1049e00002002000031f2400f4ef07000000e00095
:1049f00011003d00a0858000b185800002002000ec
:104a0000031f2400edef07000000e0000a003d0056
:104a1000c0858000d185800002002000031f240093
:104a2000e8ef07000000e0000300340010c0b3000e
:104a3000004f78002f013700e0858000f18580006d
:104a400002002000031a2400deef07000000e0004f
:104a50001f003400008680001186800002002000c4
:104a6000031a2400d7ef07000000e000180034000c
:104a7000808580009185800002002000031f2400b3
:104a8000d0ef07000000e00011003400a085800096
:104a9000b185800002002000031f2400c7ef07003b
:104aa0000000e0000a003d00c0858000d185800044
:104ab00002002000031f2400c0ef07000000e000f8
:104ac00003003d0020c0b300004f7800090137000b
:104ad000e0858000f185800002002000031a240098
:104ae000b6ef07000000e0001f003d0000868000d8
:104af0001186800002002000031a2400b1ef070095
:104b00000000e0001800340080858000918580005e
:104b100002002000031f2400aaef07000000e000ad
:104b200011003400a0858000b185800002002000c3
:104b3000031a2400a1ef07000000e0000a003d0076
:104b4000c0858000d185800002002000031f240062
:104b50009aef07000000e00003003d0010c0b30022
:104b6000004f7800e3003700e0858000f185800089
:104b700002002000031a240090ef07000000e0006c
:104b80001f003d000086800011868000020020008a
:104b9000031a24008bef07000000e0001800340027
:104ba000808580009185800002002000031f240082
:104bb00084ef07000000e00011003400a0858000b1
:104bc000b185800002002000031f24007def070054
:104bd0000000e0000a003400c0858000d18580001c
:104be00002002000031f240074ef07000000e00013
:104bf00003003d0010c0b300004f7800bd00370037
:104c0000e0858000f185800002002000031a240066
:104c10006cef07000000e0001f00340000868000f9
:104c20001186800002002000031a240063ef0700b1
:104c30000000e00018003d00808580009185800024
:104c400002002000031f24005cef07000000e000ca
:104c500011003d00a0858000b18580000200200089
:104c6000031a240055ef07000000e0000a003d0091
:104c7000c0858000d185800002002000031f240031
:104c80004eef07000000e00003003d0010c0b3003d
:104c9000004f780097003700e0858000f1858000a4
:104ca00002002000031a240046ef07000000e00085
:104cb0001f00340000868000118680000200200062
:104cc000031a24003def07000000e00018003d003b
:104cd000808580009185800002002000031f240051
:104ce00036ef07000000e00011003d00a0858000c5
:104cf000b185800002002000031a24002fef070076
:104d00000000e0000a003d00c0858000d1858000e1
:104d100002002000031f24002aef07000000e0002b
:104d20000300340010c0b300004f7800710037005a
:104d3000e0858000f185800002002000031a240035
:104d400020ef07000000e0001f0034000086800014
:104d50001186800002002000031a240017ef0700cc
:104d60000000e00018003d008085800091858000f3
:104d700002002000031f240010ef07000000e000e5
:104d800011003d00a0858000b18580000200200058
:104d9000031f24000bef07000000e0000a003400ae
:104da000c0858000d185800002002000031f240000
:104db00004ef07000000e0000300340010c0b3005f
:104dc000004f78004b003700e0858000f1858000bf
:104dd00002002000031a2400f8ee07000000e000a3
:104de0001f003d0000868000118680000200200028
:104df000031a2400f3ee07000000e000180034005e
:104e0000808580009185800002002000031f24001f
:104e1000eaee07000000e00011003d00a0858000e0
:104e2000b185800002002000031a2400e3ee070091
:104e30000000e0000a003d00c0858000d1858000b0
:104e400002002000031f2400dcee07000000e00049
:104e500003003d0020c0b300004f7800250037005c
:104e6000e0858000f185800002002000031a240004
:104e7000d2ee07000000e0001e003d00008680002a
:104e80001186800002002000031a2400cbee0700e8
:104e90000000e00017003d008085800091858000c3
:104ea00002002000031f2400c4ee07000000e00001
:104eb00010003d00a0858000b18580000200200028
:104ec000031a2400bdee07000000e00009003d00c9
:104ed000c0858000d185800002002000031f2400cf
:104ee000b6ee07000000e00002003d0030c0b30055
:104ef000004f78001e4078000004e00003003a00f4
:104f000020c0b30021f0b700110037001e40780028
:104f1000e24f500003003a0080c0b30021f0b70018
:104f20000b0037001e407800e14f500003003a00ac
:104f3000a0c0b30021f0b700050037001e40780084
:104f4000e34f500002003a00a0c0b30021f0b700c8
:104f500021d0bf000080fb000102210091407800b9
:104f60008180fb008100e900810f500007003200c2
:104f700021d0bf0020f0b70020d0bf00ea4f500082
:104f80000200320021d0bf00ef0107000000000046
:104f90000080fa00000006000a00fa0020079800ce
:104fa00031079800420798000040eb00004f78005e
:104fb0009e407800e0cfb30000c06800004f78004a
:104fc0002e0090004880de00004078009e4078006f
:104fd00000c06800004f78002e009000004078006c
:104fe0009e40780000c06800004f78003e009000ae
:104ff0004880de00004078009e40780000c06800d5
:10500000004f78003e009000004078009e407800fd
:1050100000c06800004f78000000eb001007980007
:105020000c0037001e009000e8004700110040000f
:10503000104078009e40780000c06800004f780063
:105040000e80e8008e80e8001108e80090007800eb
:10505000110798009e0090003e009000808f500045
:10506000f0ff35001e4078000080fa0000000600c6
:105070000e00fa00889fbe008a1f78004007980043
:1050800051079800620798008f0478000f0078009d
:10509000000578006a004700610020001080400091
:1050a0008000e900210798000000e8000000d1001e
:1050b000800040000f0078008187470060004000ba
:1050c000300798000000eb00100798009e00900049
:1050d0000e80e8000108e80010017800120798002f
:1050e0003e00900001004000e1cfb300014878008d
:1050f0004e009000c880de001e0190000e80e80087
:105100000208e800900178001307980081407800b9
:105110003e00900002004000014878009e00900090
:105120000e80e8000108e8001001780012079800de
:105130004e009000004178003e00900001004000c9
:10514000024878005e009000c880de001e019000da
:105150000e80e8000208e80090017800130798002c
:10516000814078003e009000020040000148780035
:105170009e0090000e80e8000108e8001001780011
:10518000120798005e009000004178003e009000f9
:1051900001004000024878000000eb00000f78009a
:1051a0000d0037001e007800ec0047009100400021
:1051b0001e0190000e80e8000208e80090017800cf
:1051c00013079800914078003e00900002004000d4
:1051d000014878001e0fe8005e0090009e007800f5
:1051e000808f5000efff35001e0490000e80e80015
:1051f0000808e80090007800110798006e01900000
:10520000de0090004e00900063ff070080407800b1
:105210003e00900008004000014878006a00470006
:1052200062002000900041003e009000fa0b070051
:105230008a07780000000000890778004f05780091
:105240004f04be000080fa00000006000200fa00d1
:10525000004f780022d0bf000080fb00e30f500019
:1052600023003200e30f500007003c00e10f500024
:1052700012003200e10f500016003c000000e00078
:105280000800320059003700e50f500031003200ad
:10529000e50f50001c003500e60f500040003200c2
:1052a000520037001e407800e24f400051003a00a3
:1052b00010c0b30022f0b7004e0037001e80fb0084
:1052c0004800dd002081880020c0b30022f0b70034
:1052d0004b0037001e80fb002181800000807000a1
:1052e0002081880030c0b30022f0b70044003700ae
:1052f0001e80fb004800dd003081880040c0b30004
:1053000022f0b7003e0037001e80fb003181800094
:10531000008070003081880031818000f03f2000e3
:10532000808f500009003c00308180000000e000c8
:105330000300340050c0b30022f0b7003000370043
:1053400060c0b30022f0b7002d0037002270ef00dc
:105350002b0037004181800030818000808f500019
:1053600026003c0041818000603c2100010040009b
:105370001e487800408180000000e80040818800dd
:105380004181800030818000808f50001b003500fb
:1053900060c0b30022f0b7002830ef0017003700dc
:1053a0001e417800a10221008248780031818000ee
:1053b00020818000623c2100f7fe07002bf0b7003f
:1053c000a1022100914078002bd0bf0080cf500077
:1053d00004003a003181800020818000623c21007d
:1053e0000a0007002270ef00050037002270ef006e
:1053f000030037000000000001003700000000003b
:10540000000000000080fa00000006001e00fa0004
:10541000889fbe008a9fbe00000f78001107980089
:1054200022079800100620009e007800808f500010
:105430005a003200100620009e007800808f500035
:1054400016003c00200220009e007800808f500053
:1054500038003200200220009e007800808f50002b
:1054600005003c00100220009e007800808f500054
:1054700025003200af003700300220009e00780087
:10548000808f500036003200100520009e0078000a
:10549000808f50003d003200a6003700200720001a
:1054a0009e007800808f500091003200200720007d
:1054b0009e007800808f500005003c0010072000ff
:1054c0009e007800808f50008300320099003700e2
:1054d000000820009e007800808f500005003200f8
:1054e000900820009e007800808f500086003200d7
:1054f000900037002e0190009e00900000082000d0
:10550000dbfe07008b0037002e0090001040780073
:10551000614060000080fb00610060004600dd002b
:10552000217480000160a1000100700020748800d7
:10553000800037002e00900010407800614060002d
:105540000080fb00610060004500dd0021748000e8
:105550000150a10001007000207488007500370020
:105560002e00900010407800614060000080fb0039
:10557000610060004400dd00217480000140a10052
:1055800001007000207488006a0037002e0090002f
:1055900010407800d5fa070066003700410120006e
:1055a0002e009000fc080700300798004107980083
:1055b000010120002e009000f70807000005be0042
:1055c000c10020002e009000f30807000004be0078
:1055d000810020002e009000ef080700500798007f
:1055e00061079800410020002e009000ea080700a3
:1055f00070079800010f98008000eb002e009000cb
:10560000e50807003e019000ce019000829fbe0099
:105610008a9fbe00889fbe005e039000ee0390004c
:105620007e0290008e0a90000001be0060102100f2
:105630009f010700ec875700c10220002e00900058
:10564000d5080700100f9800210f98008102200054
:105650002e009000d00807000005be004102200087
:105660002e009000cc0807000004be0001022000bc
:105670002e009000c8080700300f9800410f9800d6
:10568000c10120002e009000c3080700500f9800b1
:10569000610f9800810120002e009000be080700d5
:1056a0001e099000ae099000829fbe008a9fbe0036
:1056b000889fbe003e0b9000ce0b90005e0a9000cb
:1056c000ee0a90000001be0060132100780107007f
:1056d000ec875700170037008000eb002e00900089
:1056e000ad080700a0878800b18788001100370047
:1056f0008000eb002e009000a7080700c0878800fc
